{
  "_format": "hh-sol-artifact-1",
  "contractName": "Certificates",
  "sourceName": "contracts/Certificates.sol",
  "abi": [
    {
      "inputs": [],
      "stateMutability": "nonpayable",
      "type": "constructor"
    },
    {
      "inputs": [],
      "name": "admin",
      "outputs": [
        {
          "internalType": "address",
          "name": "",
          "type": "address"
        }
      ],
      "stateMutability": "view",
      "type": "function"
    },
    {
      "inputs": [
        {
          "internalType": "bytes32",
          "name": "",
          "type": "bytes32"
        }
      ],
      "name": "certificates",
      "outputs": [
        {
          "internalType": "string",
          "name": "name",
          "type": "string"
        },
        {
          "internalType": "string",
          "name": "course",
          "type": "string"
        },
        {
          "internalType": "string",
          "name": "IPFSCID",
          "type": "string"
        },
        {
          "internalType": "uint256",
          "name": "date",
          "type": "uint256"
        },
        {
          "internalType": "bool",
          "name": "isValid",
          "type": "bool"
        }
      ],
      "stateMutability": "view",
      "type": "function"
    },
    {
      "inputs": [
        {
          "internalType": "string",
          "name": "_name",
          "type": "string"
        },
        {
          "internalType": "string",
          "name": "_course",
          "type": "string"
        },
        {
          "internalType": "string",
          "name": "_IPFSCID",
          "type": "string"
        },
        {
          "internalType": "bytes32",
          "name": "_certificateHash",
          "type": "bytes32"
        }
      ],
      "name": "issueCertificate",
      "outputs": [],
      "stateMutability": "nonpayable",
      "type": "function"
    },
    {
      "inputs": [
        {
          "internalType": "bytes32",
          "name": "_certificateHash",
          "type": "bytes32"
        }
      ],
      "name": "revokeCertificate",
      "outputs": [],
      "stateMutability": "nonpayable",
      "type": "function"
    },
    {
      "inputs": [
        {
          "internalType": "bytes32",
          "name": "_certificateHash",
          "type": "bytes32"
        }
      ],
      "name": "verifyCeritificate",
      "outputs": [
        {
          "internalType": "string",
          "name": "name",
          "type": "string"
        },
        {
          "internalType": "string",
          "name": "course",
          "type": "string"
        },
        {
          "internalType": "string",
          "name": "IPFSCID",
          "type": "string"
        },
        {
          "internalType": "bool",
          "name": "isValid",
          "type": "bool"
        }
      ],
      "stateMutability": "view",
      "type": "function"
    }
  ],
  "bytecode": "0x608060405234801561001057600080fd5b50336000806101000a81548173ffffffffffffffffffffffffffffffffffffffff021916908373ffffffffffffffffffffffffffffffffffffffff16021790555061113e806100606000396000f3fe608060405234801561001057600080fd5b50600436106100575760003560e01c80631eb09b6d1461005c5780635f2a4cda1461008f578063742f0688146100ab578063c6cbc52a146100df578063f851a440146100fb575b600080fd5b61007660048036038101906100719190610855565b610119565b604051610086949392919061092d565b60405180910390f35b6100a960048036038101906100a49190610abc565b61034f565b005b6100c560048036038101906100c09190610855565b6104f3565b6040516100d6959493929190610b90565b60405180910390f35b6100f960048036038101906100f49190610855565b6106ce565b005b6101036107e7565b6040516101109190610c39565b60405180910390f35b6060806060600080600160008781526020019081526020016000209050600081600301540361017d576040517f08c379a000000000000000000000000000000000000000000000000000000000815260040161017490610ca0565b60405180910390fd5b8060000181600101826002018360040160009054906101000a900460ff168380546101a790610cef565b80601f01602080910402602001604051908101604052809291908181526020018280546101d390610cef565b80156102205780601f106101f557610100808354040283529160200191610220565b820191906000526020600020905b81548152906001019060200180831161020357829003601f168201915b5050505050935082805461023390610cef565b80601f016020809104026020016040519081016040528092919081815260200182805461025f90610cef565b80156102ac5780601f10610281576101008083540402835291602001916102ac565b820191906000526020600020905b81548152906001019060200180831161028f57829003601f168201915b505050505092508180546102bf90610cef565b80601f01602080910402602001604051908101604052809291908181526020018280546102eb90610cef565b80156103385780601f1061030d57610100808354040283529160200191610338565b820191906000526020600020905b81548152906001019060200180831161031b57829003601f168201915b505050505091509450945094509450509193509193565b60008054906101000a900473ffffffffffffffffffffffffffffffffffffffff1673ffffffffffffffffffffffffffffffffffffffff163373ffffffffffffffffffffffffffffffffffffffff16146103dd576040517f08c379a00000000000000000000000000000000000000000000000000000000081526004016103d490610d92565b60405180910390fd5b6001600082815260200190815260200160002060040160009054906101000a900460ff1615610441576040517f08c379a000000000000000000000000000000000000000000000000000000000815260040161043890610dfe565b60405180910390fd5b6040518060a00160405280858152602001848152602001838152602001428152602001600115158152506001600083815260200190815260200160002060008201518160000190816104939190610fca565b5060208201518160010190816104a99190610fca565b5060408201518160020190816104bf9190610fca565b506060820151816003015560808201518160040160006101000a81548160ff02191690831515021790555090505050505050565b600160205280600052604060002060009150905080600001805461051690610cef565b80601f016020809104026020016040519081016040528092919081815260200182805461054290610cef565b801561058f5780601f106105645761010080835404028352916020019161058f565b820191906000526020600020905b81548152906001019060200180831161057257829003601f168201915b5050505050908060010180546105a490610cef565b80601f01602080910402602001604051908101604052809291908181526020018280546105d090610cef565b801561061d5780601f106105f25761010080835404028352916020019161061d565b820191906000526020600020905b81548152906001019060200180831161060057829003601f168201915b50505050509080600201805461063290610cef565b80601f016020809104026020016040519081016040528092919081815260200182805461065e90610cef565b80156106ab5780601f10610680576101008083540402835291602001916106ab565b820191906000526020600020905b81548152906001019060200180831161068e57829003601f168201915b5050505050908060030154908060040160009054906101000a900460ff16905085565b60008054906101000a900473ffffffffffffffffffffffffffffffffffffffff1673ffffffffffffffffffffffffffffffffffffffff163373ffffffffffffffffffffffffffffffffffffffff161461075c576040517f08c379a000000000000000000000000000000000000000000000000000000000815260040161075390610d92565b60405180910390fd5b60006001600083815260200190815260200160002060030154036107b5576040517f08c379a00000000000000000000000000000000000000000000000000000000081526004016107ac906110e8565b60405180910390fd5b60006001600083815260200190815260200160002060040160006101000a81548160ff02191690831515021790555050565b60008054906101000a900473ffffffffffffffffffffffffffffffffffffffff1681565b6000604051905090565b600080fd5b600080fd5b6000819050919050565b6108328161081f565b811461083d57600080fd5b50565b60008135905061084f81610829565b92915050565b60006020828403121561086b5761086a610815565b5b600061087984828501610840565b91505092915050565b600081519050919050565b600082825260208201905092915050565b60005b838110156108bc5780820151818401526020810190506108a1565b60008484015250505050565b6000601f19601f8301169050919050565b60006108e482610882565b6108ee818561088d565b93506108fe81856020860161089e565b610907816108c8565b840191505092915050565b60008115159050919050565b61092781610912565b82525050565b6000608082019050818103600083015261094781876108d9565b9050818103602083015261095b81866108d9565b9050818103604083015261096f81856108d9565b905061097e606083018461091e565b95945050505050565b600080fd5b600080fd5b7f4e487b7100000000000000000000000000000000000000000000000000000000600052604160045260246000fd5b6109c9826108c8565b810181811067ffffffffffffffff821117156109e8576109e7610991565b5b80604052505050565b60006109fb61080b565b9050610a0782826109c0565b919050565b600067ffffffffffffffff821115610a2757610a26610991565b5b610a30826108c8565b9050602081019050919050565b82818337600083830152505050565b6000610a5f610a5a84610a0c565b6109f1565b905082815260208101848484011115610a7b57610a7a61098c565b5b610a86848285610a3d565b509392505050565b600082601f830112610aa357610aa2610987565b5b8135610ab3848260208601610a4c565b91505092915050565b60008060008060808587031215610ad657610ad5610815565b5b600085013567ffffffffffffffff811115610af457610af361081a565b5b610b0087828801610a8e565b945050602085013567ffffffffffffffff811115610b2157610b2061081a565b5b610b2d87828801610a8e565b935050604085013567ffffffffffffffff811115610b4e57610b4d61081a565b5b610b5a87828801610a8e565b9250506060610b6b87828801610840565b91505092959194509250565b6000819050919050565b610b8a81610b77565b82525050565b600060a0820190508181036000830152610baa81886108d9565b90508181036020830152610bbe81876108d9565b90508181036040830152610bd281866108d9565b9050610be16060830185610b81565b610bee608083018461091e565b9695505050505050565b600073ffffffffffffffffffffffffffffffffffffffff82169050919050565b6000610c2382610bf8565b9050919050565b610c3381610c18565b82525050565b6000602082019050610c4e6000830184610c2a565b92915050565b7f436572746966696361746520646f6573206e6f74206578697374000000000000600082015250565b6000610c8a601a8361088d565b9150610c9582610c54565b602082019050919050565b60006020820190508181036000830152610cb981610c7d565b9050919050565b7f4e487b7100000000000000000000000000000000000000000000000000000000600052602260045260246000fd5b60006002820490506001821680610d0757607f821691505b602082108103610d1a57610d19610cc0565b5b50919050565b7f4f6e6c792061646d696e2063616e20706572666f726d2074686973206163746960008201527f6f6e000000000000000000000000000000000000000000000000000000000000602082015250565b6000610d7c60228361088d565b9150610d8782610d20565b604082019050919050565b60006020820190508181036000830152610dab81610d6f565b9050919050565b7f436572746966696361746520616c726561647920657869737473000000000000600082015250565b6000610de8601a8361088d565b9150610df382610db2565b602082019050919050565b60006020820190508181036000830152610e1781610ddb565b9050919050565b60008190508160005260206000209050919050565b60006020601f8301049050919050565b600082821b905092915050565b600060088302610e807fffffffffffffffffffffffffffffffffffffffffffffffffffffffffffffffff82610e43565b610e8a8683610e43565b95508019841693508086168417925050509392505050565b6000819050919050565b6000610ec7610ec2610ebd84610b77565b610ea2565b610b77565b9050919050565b6000819050919050565b610ee183610eac565b610ef5610eed82610ece565b848454610e50565b825550505050565b600090565b610f0a610efd565b610f15818484610ed8565b505050565b5b81811015610f3957610f2e600082610f02565b600181019050610f1b565b5050565b601f821115610f7e57610f4f81610e1e565b610f5884610e33565b81016020851015610f67578190505b610f7b610f7385610e33565b830182610f1a565b50505b505050565b600082821c905092915050565b6000610fa160001984600802610f83565b1980831691505092915050565b6000610fba8383610f90565b9150826002028217905092915050565b610fd382610882565b67ffffffffffffffff811115610fec57610feb610991565b5b610ff68254610cef565b611001828285610f3d565b600060209050601f8311600181146110345760008415611022578287015190505b61102c8582610fae565b865550611094565b601f19841661104286610e1e565b60005b8281101561106a57848901518255600182019150602085019450602081019050611045565b868310156110875784890151611083601f891682610f90565b8355505b6001600288020188555050505b505050505050565b7f4365727469666963617465206e6f7420666f756e640000000000000000000000600082015250565b60006110d260158361088d565b91506110dd8261109c565b602082019050919050565b60006020820190508181036000830152611101816110c5565b905091905056fea2646970667358221220c70354c555107f260294a50f142fa9ec102b9c0ce8bd1f7513bb3fec732fba0864736f6c63430008120033",
  "linkReferences": {},
  "deployedLinkReferences": {}
}